{
  "contractName": "SupplyChain",
  "abi": [
    {
      "constant": false,
      "inputs": [
        {
          "name": "account",
          "type": "address"
        }
      ],
      "name": "addConsumer",
      "outputs": [],
      "payable": false,
      "stateMutability": "nonpayable",
      "type": "function"
    },
    {
      "constant": true,
      "inputs": [
        {
          "name": "account",
          "type": "address"
        }
      ],
      "name": "isRetailer",
      "outputs": [
        {
          "name": "",
          "type": "bool"
        }
      ],
      "payable": false,
      "stateMutability": "view",
      "type": "function"
    },
    {
      "constant": false,
      "inputs": [],
      "name": "renounceConsumer",
      "outputs": [],
      "payable": false,
      "stateMutability": "nonpayable",
      "type": "function"
    },
    {
      "constant": false,
      "inputs": [],
      "name": "renounceDistributor",
      "outputs": [],
      "payable": false,
      "stateMutability": "nonpayable",
      "type": "function"
    },
    {
      "constant": false,
      "inputs": [],
      "name": "renounceOwnership",
      "outputs": [],
      "payable": false,
      "stateMutability": "nonpayable",
      "type": "function"
    },
    {
      "constant": false,
      "inputs": [
        {
          "name": "account",
          "type": "address"
        }
      ],
      "name": "addDistributor",
      "outputs": [],
      "payable": false,
      "stateMutability": "nonpayable",
      "type": "function"
    },
    {
      "constant": false,
      "inputs": [
        {
          "name": "account",
          "type": "address"
        }
      ],
      "name": "addFarmer",
      "outputs": [],
      "payable": false,
      "stateMutability": "nonpayable",
      "type": "function"
    },
    {
      "constant": false,
      "inputs": [],
      "name": "renounceFarmer",
      "outputs": [],
      "payable": false,
      "stateMutability": "nonpayable",
      "type": "function"
    },
    {
      "constant": true,
      "inputs": [
        {
          "name": "account",
          "type": "address"
        }
      ],
      "name": "isConsumer",
      "outputs": [
        {
          "name": "",
          "type": "bool"
        }
      ],
      "payable": false,
      "stateMutability": "view",
      "type": "function"
    },
    {
      "constant": true,
      "inputs": [],
      "name": "owner",
      "outputs": [
        {
          "name": "",
          "type": "address"
        }
      ],
      "payable": false,
      "stateMutability": "view",
      "type": "function"
    },
    {
      "constant": false,
      "inputs": [
        {
          "name": "account",
          "type": "address"
        }
      ],
      "name": "addRetailer",
      "outputs": [],
      "payable": false,
      "stateMutability": "nonpayable",
      "type": "function"
    },
    {
      "constant": true,
      "inputs": [
        {
          "name": "account",
          "type": "address"
        }
      ],
      "name": "isDistributor",
      "outputs": [
        {
          "name": "",
          "type": "bool"
        }
      ],
      "payable": false,
      "stateMutability": "view",
      "type": "function"
    },
    {
      "constant": true,
      "inputs": [],
      "name": "isOwner",
      "outputs": [
        {
          "name": "",
          "type": "bool"
        }
      ],
      "payable": false,
      "stateMutability": "view",
      "type": "function"
    },
    {
      "constant": true,
      "inputs": [
        {
          "name": "account",
          "type": "address"
        }
      ],
      "name": "isFarmer",
      "outputs": [
        {
          "name": "",
          "type": "bool"
        }
      ],
      "payable": false,
      "stateMutability": "view",
      "type": "function"
    },
    {
      "constant": false,
      "inputs": [],
      "name": "renounceRetailer",
      "outputs": [],
      "payable": false,
      "stateMutability": "nonpayable",
      "type": "function"
    },
    {
      "constant": false,
      "inputs": [
        {
          "name": "newOwner",
          "type": "address"
        }
      ],
      "name": "transferOwnership",
      "outputs": [],
      "payable": false,
      "stateMutability": "nonpayable",
      "type": "function"
    },
    {
      "inputs": [],
      "payable": true,
      "stateMutability": "payable",
      "type": "constructor"
    },
    {
      "anonymous": false,
      "inputs": [
        {
          "indexed": false,
          "name": "upc",
          "type": "uint256"
        }
      ],
      "name": "Harvested",
      "type": "event"
    },
    {
      "anonymous": false,
      "inputs": [
        {
          "indexed": false,
          "name": "upc",
          "type": "uint256"
        }
      ],
      "name": "Processed",
      "type": "event"
    },
    {
      "anonymous": false,
      "inputs": [
        {
          "indexed": false,
          "name": "upc",
          "type": "uint256"
        }
      ],
      "name": "Packed",
      "type": "event"
    },
    {
      "anonymous": false,
      "inputs": [
        {
          "indexed": false,
          "name": "upc",
          "type": "uint256"
        }
      ],
      "name": "ForSale",
      "type": "event"
    },
    {
      "anonymous": false,
      "inputs": [
        {
          "indexed": false,
          "name": "upc",
          "type": "uint256"
        }
      ],
      "name": "Sold",
      "type": "event"
    },
    {
      "anonymous": false,
      "inputs": [
        {
          "indexed": false,
          "name": "upc",
          "type": "uint256"
        }
      ],
      "name": "Shipped",
      "type": "event"
    },
    {
      "anonymous": false,
      "inputs": [
        {
          "indexed": false,
          "name": "upc",
          "type": "uint256"
        }
      ],
      "name": "Received",
      "type": "event"
    },
    {
      "anonymous": false,
      "inputs": [
        {
          "indexed": false,
          "name": "upc",
          "type": "uint256"
        }
      ],
      "name": "Purchased",
      "type": "event"
    },
    {
      "anonymous": false,
      "inputs": [
        {
          "indexed": true,
          "name": "oldOwner",
          "type": "address"
        },
        {
          "indexed": true,
          "name": "newOwner",
          "type": "address"
        }
      ],
      "name": "TransferOwnership",
      "type": "event"
    },
    {
      "anonymous": false,
      "inputs": [
        {
          "indexed": true,
          "name": "account",
          "type": "address"
        }
      ],
      "name": "FarmerAdded",
      "type": "event"
    },
    {
      "anonymous": false,
      "inputs": [
        {
          "indexed": true,
          "name": "account",
          "type": "address"
        }
      ],
      "name": "FarmerRemoved",
      "type": "event"
    },
    {
      "anonymous": false,
      "inputs": [
        {
          "indexed": true,
          "name": "account",
          "type": "address"
        }
      ],
      "name": "RetailerAdded",
      "type": "event"
    },
    {
      "anonymous": false,
      "inputs": [
        {
          "indexed": true,
          "name": "account",
          "type": "address"
        }
      ],
      "name": "RetailerRemoved",
      "type": "event"
    },
    {
      "anonymous": false,
      "inputs": [
        {
          "indexed": true,
          "name": "account",
          "type": "address"
        }
      ],
      "name": "ConsumerAdded",
      "type": "event"
    },
    {
      "anonymous": false,
      "inputs": [
        {
          "indexed": true,
          "name": "account",
          "type": "address"
        }
      ],
      "name": "ConsumerRemoved",
      "type": "event"
    },
    {
      "anonymous": false,
      "inputs": [
        {
          "indexed": true,
          "name": "account",
          "type": "address"
        }
      ],
      "name": "DistributorAdded",
      "type": "event"
    },
    {
      "anonymous": false,
      "inputs": [
        {
          "indexed": true,
          "name": "account",
          "type": "address"
        }
      ],
      "name": "DistributorRemoved",
      "type": "event"
    },
    {
      "constant": false,
      "inputs": [
        {
          "name": "_upc",
          "type": "uint256"
        },
        {
          "name": "_originFarmerID",
          "type": "address"
        },
        {
          "name": "_originFarmName",
          "type": "string"
        },
        {
          "name": "_originFarmInformation",
          "type": "string"
        },
        {
          "name": "_originFarmLatitude",
          "type": "string"
        },
        {
          "name": "_originFarmLongitude",
          "type": "string"
        },
        {
          "name": "_productNotes",
          "type": "string"
        }
      ],
      "name": "harvestItem",
      "outputs": [],
      "payable": false,
      "stateMutability": "nonpayable",
      "type": "function"
    },
    {
      "constant": false,
      "inputs": [
        {
          "name": "_upc",
          "type": "uint256"
        }
      ],
      "name": "processItem",
      "outputs": [],
      "payable": false,
      "stateMutability": "nonpayable",
      "type": "function"
    },
    {
      "constant": false,
      "inputs": [
        {
          "name": "_upc",
          "type": "uint256"
        }
      ],
      "name": "packItem",
      "outputs": [],
      "payable": false,
      "stateMutability": "nonpayable",
      "type": "function"
    },
    {
      "constant": false,
      "inputs": [
        {
          "name": "_upc",
          "type": "uint256"
        },
        {
          "name": "_price",
          "type": "uint256"
        }
      ],
      "name": "sellItem",
      "outputs": [],
      "payable": false,
      "stateMutability": "nonpayable",
      "type": "function"
    },
    {
      "constant": false,
      "inputs": [
        {
          "name": "_upc",
          "type": "uint256"
        }
      ],
      "name": "buyItem",
      "outputs": [],
      "payable": true,
      "stateMutability": "payable",
      "type": "function"
    },
    {
      "constant": false,
      "inputs": [
        {
          "name": "_upc",
          "type": "uint256"
        }
      ],
      "name": "shipItem",
      "outputs": [],
      "payable": false,
      "stateMutability": "nonpayable",
      "type": "function"
    },
    {
      "constant": false,
      "inputs": [
        {
          "name": "_upc",
          "type": "uint256"
        }
      ],
      "name": "receiveItem",
      "outputs": [],
      "payable": false,
      "stateMutability": "nonpayable",
      "type": "function"
    },
    {
      "constant": false,
      "inputs": [
        {
          "name": "_upc",
          "type": "uint256"
        }
      ],
      "name": "purchaseItem",
      "outputs": [],
      "payable": true,
      "stateMutability": "payable",
      "type": "function"
    },
    {
      "constant": true,
      "inputs": [
        {
          "name": "_upc",
          "type": "uint256"
        }
      ],
      "name": "fetchItemBufferOne",
      "outputs": [
        {
          "name": "itemSKU",
          "type": "uint256"
        },
        {
          "name": "itemUPC",
          "type": "uint256"
        },
        {
          "name": "ownerID",
          "type": "address"
        },
        {
          "name": "originFarmerID",
          "type": "address"
        },
        {
          "name": "originFarmName",
          "type": "string"
        },
        {
          "name": "originFarmInformation",
          "type": "string"
        },
        {
          "name": "originFarmLatitude",
          "type": "string"
        },
        {
          "name": "originFarmLongitude",
          "type": "string"
        }
      ],
      "payable": false,
      "stateMutability": "view",
      "type": "function"
    },
    {
      "constant": true,
      "inputs": [
        {
          "name": "_upc",
          "type": "uint256"
        }
      ],
      "name": "fetchItemBufferTwo",
      "outputs": [
        {
          "name": "itemSKU",
          "type": "uint256"
        },
        {
          "name": "itemUPC",
          "type": "uint256"
        },
        {
          "name": "productID",
          "type": "uint256"
        },
        {
          "name": "productNotes",
          "type": "string"
        },
        {
          "name": "productPrice",
          "type": "uint256"
        },
        {
          "name": "itemState",
          "type": "uint8"
        },
        {
          "name": "distributorID",
          "type": "address"
        },
        {
          "name": "retailerID",
          "type": "address"
        },
        {
          "name": "consumerID",
          "type": "address"
        }
      ],
      "payable": false,
      "stateMutability": "view",
      "type": "function"
    }
  ],
  "bytecode": "0x60806040526200001e3362000140640100000000026401000000009004565b6200003833620001aa640100000000026401000000009004565b620000523362000214640100000000026401000000009004565b6200006c336200027e640100000000026401000000009004565b33600460006101000a81548173ffffffffffffffffffffffffffffffffffffffff021916908373ffffffffffffffffffffffffffffffffffffffff160217905550600460009054906101000a900473ffffffffffffffffffffffffffffffffffffffff1673ffffffffffffffffffffffffffffffffffffffff16600073ffffffffffffffffffffffffffffffffffffffff167f5c486528ec3e3f0ea91181cff8116f02bfa350e03b8b6f12e00765adbb5af85c60405160405180910390a36001600681905550600160058190555062000440565b62000164816000620002e8640100000000026200298d179091906401000000009004565b8073ffffffffffffffffffffffffffffffffffffffff167fddbf200aa634dc3fb81cfd68583dd1040d1c751d335e1d86b631bde3e977fea860405160405180910390a250565b620001ce816001620002e8640100000000026200298d179091906401000000009004565b8073ffffffffffffffffffffffffffffffffffffffff167f28b26e7a3d20aedbc5f8f2ebf7da671c0491723a2b78f47a097b0e46dee0714260405160405180910390a250565b62000238816002620002e8640100000000026200298d179091906401000000009004565b8073ffffffffffffffffffffffffffffffffffffffff167f71ae26cad02663e3d92efd6ec56031a80d74a20c0ab4183faa8bf262261c9baa60405160405180910390a250565b620002a2816003620002e8640100000000026200298d179091906401000000009004565b8073ffffffffffffffffffffffffffffffffffffffff167f2e0ded4123377a3c2bc9a26f1717655a129e2f20752924d42e730ec89c83dbd060405160405180910390a250565b600073ffffffffffffffffffffffffffffffffffffffff168173ffffffffffffffffffffffffffffffffffffffff16141515156200032557600080fd5b620003408282620003ab640100000000026401000000009004565b1515156200034d57600080fd5b60018260000160008373ffffffffffffffffffffffffffffffffffffffff1673ffffffffffffffffffffffffffffffffffffffff16815260200190815260200160002060006101000a81548160ff0219169083151502179055505050565b60008073ffffffffffffffffffffffffffffffffffffffff168273ffffffffffffffffffffffffffffffffffffffff1614151515620003e957600080fd5b8260000160008373ffffffffffffffffffffffffffffffffffffffff1673ffffffffffffffffffffffffffffffffffffffff16815260200190815260200160002060009054906101000a900460ff16905092915050565b612cad80620004506000396000f300608060405260043610610154576000357c0100000000000000000000000000000000000000000000000000000000900463ffffffff168063112940f9146101595780632d9235611461019c57806349dae766146101d35780635da09b881461020057806361e6982d1461025b578063644241db1461027257806366225ff914610289578063715018a6146103f95780637250e2241461041057806377c459131461045357806380c3f96d146106b157806380fc0ce4146106f4578063834ff7391461070b5780638da5cb5b146107665780638ec4f505146107bd5780638f0c86fa146108005780638f32d59b1461085b578063a26be9991461088a578063b9429069146108b7578063bdd8a6a814610912578063d38ea5bf14610abd578063db0e6a2f14610add578063e7fb74c714610af4578063f2fde38b14610b14578063f30fc48014610b57578063f61c899a14610b84575b600080fd5b34801561016557600080fd5b5061019a600480360381019080803573ffffffffffffffffffffffffffffffffffffffff169060200190929190505050610bb1565b005b3480156101a857600080fd5b506101d16004803603810190808035906020019092919080359060200190929190505050610bd1565b005b3480156101df57600080fd5b506101fe60048036038101908080359060200190929190505050610d2f565b005b34801561020c57600080fd5b50610241600480360381019080803573ffffffffffffffffffffffffffffffffffffffff169060200190929190505050610e71565b604051808215151515815260200191505060405180910390f35b34801561026757600080fd5b50610270610e8e565b005b34801561027e57600080fd5b50610287610e99565b005b34801561029557600080fd5b506102b460048036038101908080359060200190929190505050610ea4565b604051808a8152602001898152602001888152602001806020018781526020018660078111156102e057fe5b60ff1681526020018573ffffffffffffffffffffffffffffffffffffffff1673ffffffffffffffffffffffffffffffffffffffff1681526020018473ffffffffffffffffffffffffffffffffffffffff1673ffffffffffffffffffffffffffffffffffffffff1681526020018373ffffffffffffffffffffffffffffffffffffffff1673ffffffffffffffffffffffffffffffffffffffff168152602001828103825288818151815260200191508051906020019080838360005b838110156103b657808201518184015260208101905061039b565b50505050905090810190601f1680156103e35780820380516001836020036101000a031916815260200191505b509a505050505050505050505060405180910390f35b34801561040557600080fd5b5061040e6110c1565b005b34801561041c57600080fd5b50610451600480360381019080803573ffffffffffffffffffffffffffffffffffffffff169060200190929190505050611195565b005b34801561045f57600080fd5b5061047e600480360381019080803590602001909291905050506111b5565b604051808981526020018881526020018773ffffffffffffffffffffffffffffffffffffffff1673ffffffffffffffffffffffffffffffffffffffff1681526020018673ffffffffffffffffffffffffffffffffffffffff1673ffffffffffffffffffffffffffffffffffffffff16815260200180602001806020018060200180602001858103855289818151815260200191508051906020019080838360005b8381101561053a57808201518184015260208101905061051f565b50505050905090810190601f1680156105675780820380516001836020036101000a031916815260200191505b50858103845288818151815260200191508051906020019080838360005b838110156105a0578082015181840152602081019050610585565b50505050905090810190601f1680156105cd5780820380516001836020036101000a031916815260200191505b50858103835287818151815260200191508051906020019080838360005b838110156106065780820151818401526020810190506105eb565b50505050905090810190601f1680156106335780820380516001836020036101000a031916815260200191505b50858103825286818151815260200191508051906020019080838360005b8381101561066c578082015181840152602081019050610651565b50505050905090810190601f1680156106995780820380516001836020036101000a031916815260200191505b509c5050505050505050505050505060405180910390f35b3480156106bd57600080fd5b506106f2600480360381019080803573ffffffffffffffffffffffffffffffffffffffff16906020019092919050505061154c565b005b34801561070057600080fd5b5061070961156c565b005b34801561071757600080fd5b5061074c600480360381019080803573ffffffffffffffffffffffffffffffffffffffff169060200190929190505050611577565b604051808215151515815260200191505060405180910390f35b34801561077257600080fd5b5061077b611594565b604051808273ffffffffffffffffffffffffffffffffffffffff1673ffffffffffffffffffffffffffffffffffffffff16815260200191505060405180910390f35b3480156107c957600080fd5b506107fe600480360381019080803573ffffffffffffffffffffffffffffffffffffffff1690602001909291905050506115be565b005b34801561080c57600080fd5b50610841600480360381019080803573ffffffffffffffffffffffffffffffffffffffff1690602001909291905050506115de565b604051808215151515815260200191505060405180910390f35b34801561086757600080fd5b506108706115fb565b604051808215151515815260200191505060405180910390f35b34801561089657600080fd5b506108b560048036038101908080359060200190929190505050611653565b005b3480156108c357600080fd5b506108f8600480360381019080803573ffffffffffffffffffffffffffffffffffffffff16906020019092919050505061183f565b604051808215151515815260200191505060405180910390f35b34801561091e57600080fd5b50610abb60048036038101908080359060200190929190803573ffffffffffffffffffffffffffffffffffffffff169060200190929190803590602001908201803590602001908080601f0160208091040260200160405190810160405280939291908181526020018383808284378201915050505050509192919290803590602001908201803590602001908080601f0160208091040260200160405190810160405280939291908181526020018383808284378201915050505050509192919290803590602001908201803590602001908080601f0160208091040260200160405190810160405280939291908181526020018383808284378201915050505050509192919290803590602001908201803590602001908080601f0160208091040260200160405190810160405280939291908181526020018383808284378201915050505050509192919290803590602001908201803590602001908080601f016020809104026020016040519081016040528093929190818152602001838380828437820191505050505050919291929050505061185c565b005b610adb60048036038101908080359060200190929190505050611c17565b005b348015610ae957600080fd5b50610af2611f37565b005b610b1260048036038101908080359060200190929190505050611f42565b005b348015610b2057600080fd5b50610b55600480360381019080803573ffffffffffffffffffffffffffffffffffffffff16906020019092919050505061228a565b005b348015610b6357600080fd5b50610b82600480360381019080803590602001909291905050506122a9565b005b348015610b9057600080fd5b50610baf600480360381019080803590602001909291905050506123eb565b005b610bba33611577565b1515610bc557600080fd5b610bce8161252d565b50565b8160026007811115610bdf57fe5b60076000838152602001908152602001600020600b0160009054906101000a900460ff166007811115610c0e57fe5b141515610c1a57600080fd5b6007600084815260200190815260200160002060030160009054906101000a900473ffffffffffffffffffffffffffffffffffffffff168073ffffffffffffffffffffffffffffffffffffffff163373ffffffffffffffffffffffffffffffffffffffff16141515610c8b57600080fd5b610c943361183f565b1515610c9f57600080fd5b8260076000868152602001908152602001600020600a0181905550600360076000868152602001908152602001600020600b0160006101000a81548160ff02191690836007811115610ced57fe5b02179055507fa96ae0fc3224ebd79eebfe54bd130cc9cb94416cddd1f2386115e00b72532468846040518082815260200191505060405180910390a150505050565b8060006007811115610d3d57fe5b60076000838152602001908152602001600020600b0160009054906101000a900460ff166007811115610d6c57fe5b141515610d7857600080fd5b6007600083815260200190815260200160002060030160009054906101000a900473ffffffffffffffffffffffffffffffffffffffff168073ffffffffffffffffffffffffffffffffffffffff163373ffffffffffffffffffffffffffffffffffffffff16141515610de957600080fd5b610df23361183f565b1515610dfd57600080fd5b600160076000858152602001908152602001600020600b0160006101000a81548160ff02191690836007811115610e3057fe5b02179055507f5afe3b1bf87069693c075da5c22a98d63d1aef98a30dbbe538d0781a98b77ee5836040518082815260200191505060405180910390a1505050565b6000610e8782600261258790919063ffffffff16565b9050919050565b610e973361261b565b565b610ea233612675565b565b600080600060606000806000806000600760008b8152602001908152602001600020600001549850600760008b8152602001908152602001600020600101549750600760008b8152602001908152602001600020600801549650600760008b81526020019081526020016000206009018054600181600116156101000203166002900480601f016020809104026020016040519081016040528092919081815260200182805460018160011615610100020316600290048015610fa85780601f10610f7d57610100808354040283529160200191610fa8565b820191906000526020600020905b815481529060010190602001808311610f8b57829003601f168201915b50505050509550600760008b8152602001908152602001600020600a01549450600760008b8152602001908152602001600020600b0160009054906101000a900460ff169350600760008b8152602001908152602001600020600b0160019054906101000a900473ffffffffffffffffffffffffffffffffffffffff169250600760008b8152602001908152602001600020600c0160009054906101000a900473ffffffffffffffffffffffffffffffffffffffff169150600760008b8152602001908152602001600020600d0160009054906101000a900473ffffffffffffffffffffffffffffffffffffffff1690508888888888888888889850985098509850985098509850985098509193959799909294969850565b6110c96115fb565b15156110d457600080fd5b600073ffffffffffffffffffffffffffffffffffffffff16600460009054906101000a900473ffffffffffffffffffffffffffffffffffffffff1673ffffffffffffffffffffffffffffffffffffffff167f5c486528ec3e3f0ea91181cff8116f02bfa350e03b8b6f12e00765adbb5af85c60405160405180910390a36000600460006101000a81548173ffffffffffffffffffffffffffffffffffffffff021916908373ffffffffffffffffffffffffffffffffffffffff160217905550565b61119e336115de565b15156111a957600080fd5b6111b2816126cf565b50565b600080600080606080606080600760008a8152602001908152602001600020600001549750600760008a8152602001908152602001600020600101549650600760008a815260200190815260200160002060020160009054906101000a900473ffffffffffffffffffffffffffffffffffffffff169550600760008a815260200190815260200160002060030160009054906101000a900473ffffffffffffffffffffffffffffffffffffffff169450600760008a81526020019081526020016000206004018054600181600116156101000203166002900480601f01602080910402602001604051908101604052809291908181526020018280546001816001161561010002031660029004801561130f5780601f106112e45761010080835404028352916020019161130f565b820191906000526020600020905b8154815290600101906020018083116112f257829003601f168201915b50505050509350600760008a81526020019081526020016000206005018054600181600116156101000203166002900480601f0160208091040260200160405190810160405280929190818152602001828054600181600116156101000203166002900480156113c05780601f10611395576101008083540402835291602001916113c0565b820191906000526020600020905b8154815290600101906020018083116113a357829003601f168201915b50505050509250600760008a81526020019081526020016000206006018054600181600116156101000203166002900480601f0160208091040260200160405190810160405280929190818152602001828054600181600116156101000203166002900480156114715780601f1061144657610100808354040283529160200191611471565b820191906000526020600020905b81548152906001019060200180831161145457829003601f168201915b50505050509150600760008a81526020019081526020016000206007018054600181600116156101000203166002900480601f0160208091040260200160405190810160405280929190818152602001828054600181600116156101000203166002900480156115225780601f106114f757610100808354040283529160200191611522565b820191906000526020600020905b81548152906001019060200180831161150557829003601f168201915b50505050509050878787878787878797509750975097509750975097509750919395975091939597565b6115553361183f565b151561156057600080fd5b61156981612729565b50565b61157533612783565b565b600061158d82600161258790919063ffffffff16565b9050919050565b6000600460009054906101000a900473ffffffffffffffffffffffffffffffffffffffff16905090565b6115c733610e71565b15156115d257600080fd5b6115db816127dd565b50565b60006115f482600061258790919063ffffffff16565b9050919050565b6000600460009054906101000a900473ffffffffffffffffffffffffffffffffffffffff1673ffffffffffffffffffffffffffffffffffffffff163373ffffffffffffffffffffffffffffffffffffffff1614905090565b806005600781111561166157fe5b60076000838152602001908152602001600020600b0160009054906101000a900460ff16600781111561169057fe5b14151561169c57600080fd5b6116a533610e71565b15156116b057600080fd5b6007600083815260200190815260200160002060030160009054906101000a900473ffffffffffffffffffffffffffffffffffffffff168073ffffffffffffffffffffffffffffffffffffffff163373ffffffffffffffffffffffffffffffffffffffff1614151561172157600080fd5b336007600085815260200190815260200160002060020160006101000a81548173ffffffffffffffffffffffffffffffffffffffff021916908373ffffffffffffffffffffffffffffffffffffffff1602179055503360076000858152602001908152602001600020600c0160006101000a81548173ffffffffffffffffffffffffffffffffffffffff021916908373ffffffffffffffffffffffffffffffffffffffff160217905550600660076000858152602001908152602001600020600b0160006101000a81548160ff021916908360078111156117fe57fe5b02179055507fa8142743f8f70a4c26f3691cf4ed59718381fb2f18070ec52be1f1022d855557836040518082815260200191505060405180910390a1505050565b600061185582600361258790919063ffffffff16565b9050919050565b611864612aec565b61186d3361183f565b151561187857600080fd5b6101e060405190810160405280600654815260200189815260200161189b611594565b73ffffffffffffffffffffffffffffffffffffffff1681526020018873ffffffffffffffffffffffffffffffffffffffff16815260200187815260200186815260200185815260200184815260200189600654018152602001838152602001600081526020016000600781111561190e57fe5b81526020013373ffffffffffffffffffffffffffffffffffffffff1681526020013373ffffffffffffffffffffffffffffffffffffffff1681526020013373ffffffffffffffffffffffffffffffffffffffff16815250905080600760008a8152602001908152602001600020600082015181600001556020820151816001015560408201518160020160006101000a81548173ffffffffffffffffffffffffffffffffffffffff021916908373ffffffffffffffffffffffffffffffffffffffff16021790555060608201518160030160006101000a81548173ffffffffffffffffffffffffffffffffffffffff021916908373ffffffffffffffffffffffffffffffffffffffff1602179055506080820151816004019080519060200190611a39929190612bdc565b5060a0820151816005019080519060200190611a56929190612bdc565b5060c0820151816006019080519060200190611a73929190612bdc565b5060e0820151816007019080519060200190611a90929190612bdc565b506101008201518160080155610120820151816009019080519060200190611ab9929190612bdc565b5061014082015181600a015561016082015181600b0160006101000a81548160ff02191690836007811115611aea57fe5b021790555061018082015181600b0160016101000a81548173ffffffffffffffffffffffffffffffffffffffff021916908373ffffffffffffffffffffffffffffffffffffffff1602179055506101a082015181600c0160006101000a81548173ffffffffffffffffffffffffffffffffffffffff021916908373ffffffffffffffffffffffffffffffffffffffff1602179055506101c082015181600d0160006101000a81548173ffffffffffffffffffffffffffffffffffffffff021916908373ffffffffffffffffffffffffffffffffffffffff1602179055509050506001600654016006819055507f8e55ccfc9778ff8eba1646d765cf1982537ce0f9257054a17b48aad745250183886040518082815260200191505060405180910390a15050505050505050565b8060066007811115611c2557fe5b60076000838152602001908152602001600020600b0160009054906101000a900460ff166007811115611c5457fe5b141515611c6057600080fd5b816000806007600086815260200190815260200160002060030160009054906101000a900473ffffffffffffffffffffffffffffffffffffffff168073ffffffffffffffffffffffffffffffffffffffff163373ffffffffffffffffffffffffffffffffffffffff16141515611cd557600080fd5b611cde33611577565b1515611ce957600080fd5b336007600088815260200190815260200160002060020160006101000a81548173ffffffffffffffffffffffffffffffffffffffff021916908373ffffffffffffffffffffffffffffffffffffffff1602179055503360076000888152602001908152602001600020600d0160006101000a81548173ffffffffffffffffffffffffffffffffffffffff021916908373ffffffffffffffffffffffffffffffffffffffff1602179055506007806000888152602001908152602001600020600b0160006101000a81548160ff02191690836007811115611dc557fe5b021790555060076000878152602001908152602001600020600c0160009054906101000a900473ffffffffffffffffffffffffffffffffffffffff1673ffffffffffffffffffffffffffffffffffffffff166108fc60076000898152602001908152602001600020600a01549081150290604051600060405180830381858888f19350505050158015611e5c573d6000803e3d6000fd5b507f653d56639fee6b566a5c804764e9689de38645f0b733df89a36a1b7b42173dd8866040518082815260200191505060405180910390a15060076000848152602001908152602001600020600a01549150813403905060076000848152602001908152602001600020600d0160009054906101000a900473ffffffffffffffffffffffffffffffffffffffff1673ffffffffffffffffffffffffffffffffffffffff166108fc829081150290604051600060405180830381858888f19350505050158015611f2f573d6000803e3d6000fd5b505050505050565b611f4033612837565b565b8060036007811115611f5057fe5b60076000838152602001908152602001600020600b0160009054906101000a900460ff166007811115611f7f57fe5b141515611f8b57600080fd5b60076000838152602001908152602001600020600a0154803410151515611fb157600080fd5b6007600084815260200190815260200160002060030160009054906101000a900473ffffffffffffffffffffffffffffffffffffffff168073ffffffffffffffffffffffffffffffffffffffff163373ffffffffffffffffffffffffffffffffffffffff1614151561202257600080fd5b8360008061202f336115de565b151561203a57600080fd5b336007600089815260200190815260200160002060020160006101000a81548173ffffffffffffffffffffffffffffffffffffffff021916908373ffffffffffffffffffffffffffffffffffffffff1602179055503360076000898152602001908152602001600020600b0160016101000a81548173ffffffffffffffffffffffffffffffffffffffff021916908373ffffffffffffffffffffffffffffffffffffffff160217905550600460076000898152602001908152602001600020600b0160006101000a81548160ff0219169083600781111561211757fe5b02179055506007600088815260200190815260200160002060030160009054906101000a900473ffffffffffffffffffffffffffffffffffffffff1673ffffffffffffffffffffffffffffffffffffffff166108fc600760008a8152602001908152602001600020600a01549081150290604051600060405180830381858888f193505050501580156121ae573d6000803e3d6000fd5b507f92f64ca637d023f354075a4be751b169c1a8a9ccb6d33cdd0cb3520543995727876040518082815260200191505060405180910390a160076000848152602001908152602001600020600a01549150813403905060076000848152602001908152602001600020600b0160019054906101000a900473ffffffffffffffffffffffffffffffffffffffff1673ffffffffffffffffffffffffffffffffffffffff166108fc829081150290604051600060405180830381858888f19350505050158015612280573d6000803e3d6000fd5b5050505050505050565b6122926115fb565b151561229d57600080fd5b6122a681612891565b50565b80600160078111156122b757fe5b60076000838152602001908152602001600020600b0160009054906101000a900460ff1660078111156122e657fe5b1415156122f257600080fd5b6007600083815260200190815260200160002060030160009054906101000a900473ffffffffffffffffffffffffffffffffffffffff168073ffffffffffffffffffffffffffffffffffffffff163373ffffffffffffffffffffffffffffffffffffffff1614151561236357600080fd5b61236c3361183f565b151561237757600080fd5b600260076000858152602001908152602001600020600b0160006101000a81548160ff021916908360078111156123aa57fe5b02179055507f9b3b66e2380b690bae22c73ef1428fb0c91e72fe14a4b6defa13035214187aff836040518082815260200191505060405180910390a1505050565b80600460078111156123f957fe5b60076000838152602001908152602001600020600b0160009054906101000a900460ff16600781111561242857fe5b14151561243457600080fd5b6007600083815260200190815260200160002060030160009054906101000a900473ffffffffffffffffffffffffffffffffffffffff168073ffffffffffffffffffffffffffffffffffffffff163373ffffffffffffffffffffffffffffffffffffffff161415156124a557600080fd5b6124ae336115de565b15156124b957600080fd5b600560076000858152602001908152602001600020600b0160006101000a81548160ff021916908360078111156124ec57fe5b02179055507ff00b9a5725b80c54016f42114f6ed7792d22eecb116011c4afac29c57bef6c95836040518082815260200191505060405180910390a1505050565b61254181600161298d90919063ffffffff16565b8073ffffffffffffffffffffffffffffffffffffffff167f28b26e7a3d20aedbc5f8f2ebf7da671c0491723a2b78f47a097b0e46dee0714260405160405180910390a250565b60008073ffffffffffffffffffffffffffffffffffffffff168273ffffffffffffffffffffffffffffffffffffffff16141515156125c457600080fd5b8260000160008373ffffffffffffffffffffffffffffffffffffffff1673ffffffffffffffffffffffffffffffffffffffff16815260200190815260200160002060009054906101000a900460ff16905092915050565b61262f816001612a3d90919063ffffffff16565b8073ffffffffffffffffffffffffffffffffffffffff167fe3f5ed5f263f1f01764a96edfc7d025f511ec5f7d180e8816908b78bcf74f09860405160405180910390a250565b612689816000612a3d90919063ffffffff16565b8073ffffffffffffffffffffffffffffffffffffffff167f126174f6cf49c81cdb4a9214c6b8f037bef55b4ec31e4fc776cea2a1c8a88d5960405160405180910390a250565b6126e381600061298d90919063ffffffff16565b8073ffffffffffffffffffffffffffffffffffffffff167fddbf200aa634dc3fb81cfd68583dd1040d1c751d335e1d86b631bde3e977fea860405160405180910390a250565b61273d81600361298d90919063ffffffff16565b8073ffffffffffffffffffffffffffffffffffffffff167f2e0ded4123377a3c2bc9a26f1717655a129e2f20752924d42e730ec89c83dbd060405160405180910390a250565b612797816003612a3d90919063ffffffff16565b8073ffffffffffffffffffffffffffffffffffffffff167fa5e0f060af304ab17dd418c7927e3da3ae7868189bf387aee09ab179ccc572f260405160405180910390a250565b6127f181600261298d90919063ffffffff16565b8073ffffffffffffffffffffffffffffffffffffffff167f71ae26cad02663e3d92efd6ec56031a80d74a20c0ab4183faa8bf262261c9baa60405160405180910390a250565b61284b816002612a3d90919063ffffffff16565b8073ffffffffffffffffffffffffffffffffffffffff167fdb7176e79cffef81cb01767dd0447a0b24bb72ca9778d4b245581086b2a7e6db60405160405180910390a250565b600073ffffffffffffffffffffffffffffffffffffffff168173ffffffffffffffffffffffffffffffffffffffff16141515156128cd57600080fd5b8073ffffffffffffffffffffffffffffffffffffffff16600460009054906101000a900473ffffffffffffffffffffffffffffffffffffffff1673ffffffffffffffffffffffffffffffffffffffff167f5c486528ec3e3f0ea91181cff8116f02bfa350e03b8b6f12e00765adbb5af85c60405160405180910390a380600460006101000a81548173ffffffffffffffffffffffffffffffffffffffff021916908373ffffffffffffffffffffffffffffffffffffffff16021790555050565b600073ffffffffffffffffffffffffffffffffffffffff168173ffffffffffffffffffffffffffffffffffffffff16141515156129c957600080fd5b6129d38282612587565b1515156129df57600080fd5b60018260000160008373ffffffffffffffffffffffffffffffffffffffff1673ffffffffffffffffffffffffffffffffffffffff16815260200190815260200160002060006101000a81548160ff0219169083151502179055505050565b600073ffffffffffffffffffffffffffffffffffffffff168173ffffffffffffffffffffffffffffffffffffffff1614151515612a7957600080fd5b612a838282612587565b1515612a8e57600080fd5b60008260000160008373ffffffffffffffffffffffffffffffffffffffff1673ffffffffffffffffffffffffffffffffffffffff16815260200190815260200160002060006101000a81548160ff0219169083151502179055505050565b6101e0604051908101604052806000815260200160008152602001600073ffffffffffffffffffffffffffffffffffffffff168152602001600073ffffffffffffffffffffffffffffffffffffffff1681526020016060815260200160608152602001606081526020016060815260200160008152602001606081526020016000815260200160006007811115612b7f57fe5b8152602001600073ffffffffffffffffffffffffffffffffffffffff168152602001600073ffffffffffffffffffffffffffffffffffffffff168152602001600073ffffffffffffffffffffffffffffffffffffffff1681525090565b828054600181600116156101000203166002900490600052602060002090601f016020900481019282601f10612c1d57805160ff1916838001178555612c4b565b82800160010185558215612c4b579182015b82811115612c4a578251825591602001919060010190612c2f565b5b509050612c589190612c5c565b5090565b612c7e91905b80821115612c7a576000816000905550600101612c62565b5090565b905600a165627a7a72305820468abbd42ce9d0fd7338af7794f58ec26ca24ddcde9eae1372659513144637be0029",
  "source": "pragma solidity ^0.4.24;\n\nimport \"../coffeeaccesscontrol/FarmerRole.sol\";\nimport \"../coffeeaccesscontrol/DistributorRole.sol\";\nimport \"../coffeeaccesscontrol/RetailerRole.sol\";\nimport \"../coffeeaccesscontrol/ConsumerRole.sol\";\nimport \"../coffeecore/Ownable.sol\";\n\n\n// Define a contract 'Supplychain'\ncontract SupplyChain is DistributorRole, ConsumerRole, RetailerRole, FarmerRole, Ownable{\n  //using Roles for Roles.Role;\n  // Define 'owner'\n  //address owner = msg.sender;\n\n  // Define a variable called 'upc' for Universal Product Code (UPC)\n  uint  upc;\n\n  // Define a variable called 'sku' for Stock Keeping Unit (SKU)\n  uint  sku;\n\n  // Define a public mapping 'items' that maps the UPC to an Item.\n  mapping (uint => Item) items;\n\n  // Define a public mapping 'itemsHistory' that maps the UPC to an array of TxHash, \n  // that track its journey through the supply chain -- to be sent from DApp.\n  mapping (uint => string[]) itemsHistory;\n  \n  // Define enum 'State' with the following values:\n  enum State \n  { \n    Harvested,  // 0\n    Processed,  // 1\n    Packed,     // 2\n    ForSale,    // 3\n    Sold,       // 4\n    Shipped,    // 5\n    Received,   // 6\n    Purchased   // 7\n  }\n\n  State constant defaultState = State.Harvested;\n\n  // Define a struct 'Item' with the following fields:\n  struct Item {\n    uint    sku;  // Stock Keeping Unit (SKU)\n    uint    upc; // Universal Product Code (UPC), generated by the Farmer, goes on the package, can be verified by the Consumer\n    address ownerID;  // Metamask-Ethereum address of the current owner as the product moves through 8 stages\n    address originFarmerID; // Metamask-Ethereum address of the Farmer\n    string  originFarmName; // Farmer Name\n    string  originFarmInformation;  // Farmer Information\n    string  originFarmLatitude; // Farm Latitude\n    string  originFarmLongitude;  // Farm Longitude\n    uint    productID;  // Product ID potentially a combination of upc + sku\n    string  productNotes; // Product Notes\n    uint    productPrice; // Product Price\n    State   itemState;  // Product State as represented in the enum above\n    address distributorID;  // Metamask-Ethereum address of the Distributor\n    address retailerID; // Metamask-Ethereum address of the Retailer\n    address consumerID; // Metamask-Ethereum address of the Consumer\n  }\n\n  // Define 8 events with the same 8 state values and accept 'upc' as input argument\n  event Harvested(uint upc);\n  event Processed(uint upc);\n  event Packed(uint upc);\n  event ForSale(uint upc);\n  event Sold(uint upc);\n  event Shipped(uint upc);\n  event Received(uint upc);\n  event Purchased(uint upc);\n\n  // Define a modifer that checks to see if msg.sender == owner of the contract\n  /*modifier onlyOwner() {\n    require(msg.sender == owner());\n    _;\n  }*/\n\n  // Define a modifer that verifies the Caller\n  modifier verifyCaller (address _address) {\n    require(msg.sender == _address); \n    _;\n  }\n\n  // Define a modifier that checks if the paid amount is sufficient to cover the price\n  modifier paidEnough(uint _price) { \n    require(msg.value >= _price); \n    _;\n  }\n\n  // Define a modifier that checks the price and refunds the remaining balance\n  modifier checkValueDist(uint _upc) {\n    _;\n    uint _price = items[_upc].productPrice;\n    uint amountToReturn = msg.value - _price;\n    items[_upc].distributorID.transfer(amountToReturn);\n  }\n  \n  // Define a modifier that checks the price and refunds the remaining balance\n  modifier checkValue(uint _upc) {\n    _;\n    uint _price = items[_upc].productPrice;\n    uint amountToReturn = msg.value - _price;\n    items[_upc].consumerID.transfer(amountToReturn);\n  }\n\n  // Define a modifier that checks if an item.state of a upc is Harvested\n  modifier harvested(uint _upc) {\n    require(items[_upc].itemState == State.Harvested);\n    _;\n  }\n\n  // Define a modifier that checks if an item.state of a upc is Processed\n  modifier processed(uint _upc) {\n    require(items[_upc].itemState == State.Processed);\n    _;\n  }\n  \n  // Define a modifier that checks if an item.state of a upc is Packed\n  modifier packed(uint _upc) {\n    require(items[_upc].itemState == State.Packed);\n    _;\n  }\n\n  // Define a modifier that checks if an item.state of a upc is ForSale\n  modifier forSale(uint _upc) {\n    require(items[_upc].itemState == State.ForSale);\n    _;\n  }\n\n  // Define a modifier that checks if an item.state of a upc is Sold\n  modifier sold(uint _upc) {\n    require(items[_upc].itemState == State.Sold);\n    _;\n  }\n  \n  // Define a modifier that checks if an item.state of a upc is Shipped\n  modifier shipped(uint _upc) {\n    require(items[_upc].itemState == State.Shipped);\n    _;\n  }\n\n  // Define a modifier that checks if an item.state of a upc is Received\n  modifier received(uint _upc) {\n    require(items[_upc].itemState == State.Received);\n    _;\n  }\n\n  // Define a modifier that checks if an item.state of a upc is Purchased\n  modifier purchased(uint _upc) {\n    require(items[_upc].itemState == State.Purchased);\n    _;\n  }\n\n  // In the constructor set 'owner' to the address that instantiated the contract\n  // and set 'sku' to 1\n  // and set 'upc' to 1\n  constructor() public payable {\n    \n    sku = 1;\n    upc = 1;\n  }\n\n  // Define a function 'kill' if required\n /* function kill() public {\n    if (msg.sender == owner) {\n      selfdestruct(owner);\n    }\n  }*/\n\n  // Define a function 'harvestItem' that allows a farmer to mark an item 'Harvested'\n  function harvestItem(uint _upc, address _originFarmerID, string _originFarmName, string _originFarmInformation, string  _originFarmLatitude, string  _originFarmLongitude, string  _productNotes) public onlyFarmer()\n  {\n    \n    // Add the new item as part of Harvest\n    Item memory newItem = Item(sku, _upc, Ownable.owner(), _originFarmerID, _originFarmName, _originFarmInformation, _originFarmLatitude, _originFarmLongitude, sku+_upc, _productNotes, 0, defaultState, msg.sender, msg.sender, msg.sender);\n    items[_upc] = newItem;\n    //console.log(newItem);\n    \n    // Increment sku\n    sku = sku + 1;\n\n    // Emit the appropriate event\n    emit Harvested(_upc);\n  }\n\n  // Define a function 'processtItem' that allows a farmer to mark an item 'Processed'\n  function processItem(uint _upc) public harvested(_upc) verifyCaller(items[_upc].originFarmerID) onlyFarmer() \n  // Call modifier to check if upc has passed previous supply chain stage\n  \n  // Call modifier to verify caller of this function\n  \n  {\n    // Update the appropriate fields\n    items[_upc].itemState = State.Processed;\n    \n    // Emit the appropriate event\n    emit Processed(_upc);\n  }\n\n  // Define a function 'packItem' that allows a farmer to mark an item 'Packed'\n  function packItem(uint _upc) public processed(_upc) verifyCaller(items[_upc].originFarmerID) onlyFarmer() \n  // Call modifier to check if upc has passed previous supply chain stage\n  \n  // Call modifier to verify caller of this function\n  \n  {\n    // Update the appropriate fields\n      items[_upc].itemState = State.Packed;\n    // Emit the appropriate event\n    emit Packed(_upc);\n  }\n\n  // Define a function 'sellItem' that allows a farmer to mark an item 'ForSale'\n  function sellItem(uint _upc, uint _price) public packed(_upc) verifyCaller(items[_upc].originFarmerID) onlyFarmer() \n  // Call modifier to check if upc has passed previous supply chain stage\n  \n  // Call modifier to verify caller of this function\n  \n  {\n    // Update the appropriate fields\n    items[_upc].productPrice = _price;\n    items[_upc].itemState = State.ForSale;\n    // Emit the appropriate event\n    emit ForSale(_upc);\n  }\n\n  // Define a function 'buyItem' that allows the disributor to mark an item 'Sold'\n  // Use the above defined modifiers to check if the item is available for sale, if the buyer has paid enough, \n  // and any excess ether sent is refunded back to the buyer\n  function buyItem(uint _upc) public payable forSale(_upc) paidEnough(items[_upc].productPrice) verifyCaller(items[_upc].originFarmerID) checkValueDist(_upc) onlyDistributor()\n    // Call modifier to check if upc has passed previous supply chain stage\n    \n    // Call modifer to check if buyer has paid enough\n    \n    // Call modifer to send any excess ether back to buyer\n    \n    {\n    \n    // Update the appropriate fields - ownerID, distributorID, itemState\n    items[_upc].ownerID = msg.sender;\n    items[_upc].distributorID = msg.sender;\n    items[_upc].itemState = State.Sold;\n\n    // Transfer money to farmer\n    items[_upc].originFarmerID.transfer(items[_upc].productPrice);\n\n    // emit the appropriate event\n    emit Sold(_upc);\n  }\n\n  // Define a function 'shipItem' that allows the distributor to mark an item 'Shipped'\n  // Use the above modifers to check if the item is sold\n  function shipItem(uint _upc) public sold(_upc) verifyCaller(items[_upc].originFarmerID) onlyDistributor()\n    // Call modifier to check if upc has passed previous supply chain stage\n    \n    // Call modifier to verify caller of this function\n    \n    {\n    // Update the appropriate fields\n    items[_upc].itemState = State.Shipped;\n    // Emit the appropriate event\n    emit Shipped(_upc);    \n  }\n\n  // Define a function 'receiveItem' that allows the retailer to mark an item 'Received'\n  // Use the above modifiers to check if the item is shipped\n  function receiveItem(uint _upc) public shipped(_upc) onlyRetailer() verifyCaller(items[_upc].originFarmerID)\n    // Call modifier to check if upc has passed previous supply chain stage\n    \n    // Access Control List enforced by calling Smart Contract / DApp\n    {\n    // Update the appropriate fields - ownerID, retailerID, itemState\n    items[_upc].ownerID = msg.sender;\n    items[_upc].retailerID = msg.sender;\n    items[_upc].itemState = State.Received;\n    // Emit the appropriate event\n    emit Received(_upc);\n  }\n\n  // Define a function 'purchaseItem' that allows the consumer to mark an item 'Purchased'\n  // Use the above modifiers to check if the item is received\n  function purchaseItem(uint _upc) public payable received(_upc) checkValue(_upc) verifyCaller(items[_upc].originFarmerID) onlyConsumer()\n    // Call modifier to check if upc has passed previous supply chain stage\n    \n    // Access Control List enforced by calling Smart Contract / DApp\n    {\n    // Update the appropriate fields - ownerID, consumerID, itemState\n    items [_upc].ownerID = msg.sender;\n    items[_upc].consumerID = msg.sender;\n    items[_upc].itemState = State.Purchased;\n\n    // Transfer money to retailer\n    items[_upc].retailerID.transfer(items[_upc].productPrice);\n\n    // Emit the appropriate event\n    emit Purchased(_upc);\n  }\n\n  // Define a function 'fetchItemBufferOne' that fetches the data\n  function fetchItemBufferOne(uint _upc) public view returns \n  (\n  uint    itemSKU,\n  uint    itemUPC,\n  address ownerID,\n  address originFarmerID,\n  string originFarmName,\n  string originFarmInformation,\n  string originFarmLatitude,\n  string originFarmLongitude\n  ) \n  {\n  // Assign values to the 8 parameters\n  itemSKU = items[_upc].sku;\n  itemUPC = items[_upc].upc;\n  ownerID = items[_upc].ownerID;\n  originFarmerID = items[_upc].originFarmerID;\n  originFarmName = items[_upc].originFarmName;\n  originFarmInformation = items[_upc].originFarmInformation;\n  originFarmLatitude = items[_upc].originFarmLatitude;\n  originFarmLongitude = items[_upc].originFarmLongitude;\n    \n  return \n  (\n  itemSKU,\n  itemUPC,\n  ownerID,\n  originFarmerID,\n  originFarmName,\n  originFarmInformation,\n  originFarmLatitude,\n  originFarmLongitude\n  );\n  }\n\n  // Define a function 'fetchItemBufferTwo' that fetches the data\n  function fetchItemBufferTwo(uint _upc) public view returns \n  (\n  uint itemSKU,\n  uint itemUPC,\n  uint productID,\n  string productNotes,\n  uint    productPrice,\n  State    itemState,\n  address distributorID,\n  address retailerID,\n  address consumerID\n  ) \n  {\n    // Assign values to the 9 parameters\n  \n  itemSKU = items[_upc].sku;\n  itemUPC = items[_upc].upc;\n  productID = items[_upc].productID;\n  productNotes = items[_upc].productNotes;\n  productPrice = items[_upc].productPrice;\n  itemState = items[_upc].itemState;\n  distributorID = items[_upc].distributorID;\n  retailerID = items[_upc].retailerID;\n  consumerID = items[_upc].consumerID;\n\n  return \n  (\n  itemSKU,\n  itemUPC,\n  productID,\n  productNotes,\n  productPrice,\n  itemState,\n  distributorID,\n  retailerID,\n  consumerID\n  );\n  }\n\n\n}\n",
  "sourcePath": "/media/liligi/LG_Home/DEVELOPMENT_PROGR/BLOCKCHAIN/COURSE/ARCHITECTURE/nd/Liana George_Coffee Supply Chain/contracts/coffeebase/SupplyChain.sol",
  "compiler": {
    "name": "solc",
    "version": "0.4.26+commit.4563c3fc.Emscripten.clang"
  },
  "schemaVersion": "3.4.4",
  "updatedAt": "2022-02-27T14:46:27.554Z",
  "networkType": "ethereum",
  "devdoc": {
    "methods": {}
  },
  "userdoc": {
    "methods": {
      "isOwner()": {
        "notice": "Check if the calling address is the owner of the contract"
      },
      "owner()": {
        "notice": "Look up the address of the owner"
      },
      "renounceOwnership()": {
        "notice": "Define a function to renounce ownerhip"
      },
      "transferOwnership(address)": {
        "notice": "Define a public function to transfer ownership"
      }
    }
  }
}